{
  "contractName": "Voting",
  "abi": [
    {
      "inputs": [],
      "payable": false,
      "stateMutability": "nonpayable",
      "type": "constructor"
    },
    {
      "constant": true,
      "inputs": [
        {
          "internalType": "address",
          "name": "",
          "type": "address"
        }
      ],
      "name": "cvotes",
      "outputs": [
        {
          "internalType": "address",
          "name": "caddress",
          "type": "address"
        },
        {
          "internalType": "enum Voting.Confirmation",
          "name": "step",
          "type": "uint8"
        }
      ],
      "payable": false,
      "stateMutability": "view",
      "type": "function"
    },
    {
      "constant": false,
      "inputs": [
        {
          "internalType": "string",
          "name": "_name",
          "type": "string"
        }
      ],
      "name": "addCandidate",
      "outputs": [],
      "payable": false,
      "stateMutability": "nonpayable",
      "type": "function"
    },
    {
      "constant": true,
      "inputs": [
        {
          "internalType": "uint256",
          "name": "_id",
          "type": "uint256"
        }
      ],
      "name": "getCandidate",
      "outputs": [
        {
          "internalType": "string",
          "name": "",
          "type": "string"
        }
      ],
      "payable": false,
      "stateMutability": "view",
      "type": "function"
    },
    {
      "constant": false,
      "inputs": [
        {
          "internalType": "uint256",
          "name": "_id",
          "type": "uint256"
        }
      ],
      "name": "voteCandidate",
      "outputs": [],
      "payable": false,
      "stateMutability": "nonpayable",
      "type": "function"
    },
    {
      "constant": true,
      "inputs": [],
      "name": "getWinner",
      "outputs": [
        {
          "internalType": "string",
          "name": "",
          "type": "string"
        }
      ],
      "payable": false,
      "stateMutability": "view",
      "type": "function"
    }
  ],
  "bytecode": "0x60806040526000600155600060025534801561001a57600080fd5b50336000806101000a81548173ffffffffffffffffffffffffffffffffffffffff021916908373ffffffffffffffffffffffffffffffffffffffff16021790555061095b8061006a6000396000f3fe608060405234801561001057600080fd5b50600436106100575760003560e01c806335b8e8201461005c578063462e91ec146101035780638c08a4dc146101be5780638e7ea5b2146101ec578063fddf6c011461026f575b600080fd5b6100886004803603602081101561007257600080fd5b8101908080359060200190929190505050610308565b6040518080602001828103825283818151815260200191508051906020019080838360005b838110156100c85780820151818401526020810190506100ad565b50505050905090810190601f1680156100f55780820380516001836020036101000a031916815260200191505b509250505060405180910390f35b6101bc6004803603602081101561011957600080fd5b810190808035906020019064010000000081111561013657600080fd5b82018360208201111561014857600080fd5b8035906020019184600183028401116401000000008311171561016a57600080fd5b91908080601f016020809104026020016040519081016040528093929190818152602001838380828437600081840152601f19601f8201169050808301925050505050505091929192905050506103c0565b005b6101ea600480360360208110156101d457600080fd5b81019080803590602001909291905050506104c4565b005b6101f46106f6565b6040518080602001828103825283818151815260200191508051906020019080838360005b83811015610234578082015181840152602081019050610219565b50505050905090810190601f1680156102615780820380516001836020036101000a031916815260200191505b509250505060405180910390f35b6102b16004803603602081101561028557600080fd5b81019080803573ffffffffffffffffffffffffffffffffffffffff16906020019092919050505061080e565b604051808373ffffffffffffffffffffffffffffffffffffffff1673ffffffffffffffffffffffffffffffffffffffff1681526020018260018111156102f357fe5b60ff1681526020019250505060405180910390f35b6060600560008381526020019081526020016000206000018054600181600116156101000203166002900480601f0160208091040260200160405190810160405280929190818152602001828054600181600116156101000203166002900480156103b45780601f10610389576101008083540402835291602001916103b4565b820191906000526020600020905b81548152906001019060200180831161039757829003601f168201915b50505050509050919050565b6000809054906101000a900473ffffffffffffffffffffffffffffffffffffffff1673ffffffffffffffffffffffffffffffffffffffff163373ffffffffffffffffffffffffffffffffffffffff1614610482576040517f08c379a000000000000000000000000000000000000000000000000000000000815260040180806020018281038252601f8152602001807f4f6e6c79206d616e616765722063616e206164642063616e646964617465730081525060200191505060405180910390fd5b8060056000600154815260200190815260200160002060000190805190602001906104ae92919061085f565b5060016000815480929190600101919050555050565b600060018111156104d157fe5b600360003373ffffffffffffffffffffffffffffffffffffffff1673ffffffffffffffffffffffffffffffffffffffff16815260200190815260200160002060000160149054906101000a900460ff16600181111561052c57fe5b14610582576040517f08c379a00000000000000000000000000000000000000000000000000000000081526004018080602001828103825260228152602001806109056022913960400191505060405180910390fd5b600560008281526020019081526020016000206001016000815480929190600101919050555033600360003373ffffffffffffffffffffffffffffffffffffffff1673ffffffffffffffffffffffffffffffffffffffff16815260200190815260200160002060000160006101000a81548173ffffffffffffffffffffffffffffffffffffffff021916908373ffffffffffffffffffffffffffffffffffffffff1602179055506001600360003373ffffffffffffffffffffffffffffffffffffffff1673ffffffffffffffffffffffffffffffffffffffff16815260200190815260200160002060000160146101000a81548160ff0219169083600181111561068857fe5b021790555060043390806001815401808255809150509060018203906000526020600020016000909192909190916101000a81548173ffffffffffffffffffffffffffffffffffffffff021916908373ffffffffffffffffffffffffffffffffffffffff1602179055505050565b60606000809050600080600090505b60015481101561075757826005600083815260200190815260200160002060010154111561074a57600560008281526020019081526020016000206001015492508091505b8080600101915050610705565b50600560008281526020019081526020016000206000018054600181600116156101000203166002900480601f0160208091040260200160405190810160405280929190818152602001828054600181600116156101000203166002900480156108025780601f106107d757610100808354040283529160200191610802565b820191906000526020600020905b8154815290600101906020018083116107e557829003601f168201915b50505050509250505090565b60036020528060005260406000206000915090508060000160009054906101000a900473ffffffffffffffffffffffffffffffffffffffff16908060000160149054906101000a900460ff16905082565b828054600181600116156101000203166002900490600052602060002090601f016020900481019282601f106108a057805160ff19168380011785556108ce565b828001600101855582156108ce579182015b828111156108cd5782518255916020019190600101906108b2565b5b5090506108db91906108df565b5090565b61090191905b808211156108fd5760008160009055506001016108e5565b5090565b9056fe596f7520616c726561647920766f74656420696e207468697320656c656374696f6ea265627a7a72315820b316fd75b91e8c67a84b0f9d870e3ecf5c7be54b43a9c0a81e47d045e09becdc64736f6c63430005100032",
  "source": "// SPDX-License-Identifier: MIT\r\n\r\npragma solidity >=0.4.11 < 8.10.0;\r\n\r\ncontract Voting{\r\n\r\n    address private manager;\r\n    uint private id=0;\r\n    uint private count=0;\r\n    enum Confirmation{not_voted, voted}\r\n    struct Candidate{\r\n        string name;\r\n        // address caddress;\r\n        uint count;\r\n    }\r\n\r\n    struct CandidateVotes{\r\n        address caddress;\r\n        Confirmation step;\r\n    }\r\n\r\n    mapping(address => CandidateVotes) public cvotes;\r\n    address[] voters;\r\n\r\n    mapping(uint => Candidate) private candidates;\r\n\r\n    constructor() public{\r\n        manager = msg.sender;\r\n    }\r\n\r\n    function addCandidate(string memory _name) public{\r\n        require(msg.sender==manager, \"Only manager can add candidates\");\r\n        candidates[id].name = _name;\r\n        // candidates[id].caddress = _caddress;\r\n        id++;\r\n    }\r\n\r\n    function getCandidate(uint _id) public view returns(string memory){\r\n        return candidates[_id].name;\r\n    }\r\n\r\n    function voteCandidate(uint _id) public{\r\n        require(cvotes[msg.sender].step == Confirmation.not_voted, \"You already voted in this election\");\r\n        candidates[_id].count++;\r\n        cvotes[msg.sender].caddress = msg.sender;\r\n        cvotes[msg.sender].step = Confirmation.voted;\r\n        voters.push(msg.sender);\r\n    }\r\n\r\n    function getWinner() public view returns(string memory){\r\n        uint largest = 0;\r\n        uint index;\r\n        for(uint i=0; i<id; i++){\r\n            if(candidates[i].count > largest){\r\n                largest = candidates[i].count;\r\n                index = i;\r\n            }\r\n        }\r\n        return candidates[index].name;\r\n    }\r\n}",
  "sourcePath": "D:\\blockchain\\ch7\\contracts\\Voting.sol",
  "compiler": {
    "name": "solc",
    "version": "0.5.16+commit.9c3226ce.Emscripten.clang"
  },
  "schemaVersion": "3.4.4",
  "updatedAt": "2022-02-21T15:50:28.478Z",
  "networkType": "ethereum",
  "devdoc": {
    "methods": {}
  },
  "userdoc": {
    "methods": {}
  }
}